:020000021000EC
:10000000E03F082093010100FB000100E100010036
:10001000090101001901010029010100000000008F
:1000200000000000000000000000000055A70100D3
:100030003901010000000000E5A70100590101009D
:1000400085AD010085AD010085AD010085AD0100E4
:1000500085AD010085AD010085AD010085AD0100D4
:1000600085AD010085AD010085AD010085AD0100C4
:1000700085AD010085AD010085AD010085AD0100B4
:1000800085AD010085AD010085AD010085AD0100A4
:1000900085AD010085AD010085AD010085AD010094
:1000A00085AD010085AD010085AD010085AD010084
:1000B00085AD010085AD010085AD010085AD010074
:1000C00085AD010085AD010085AD01009C5D02009C
:1000D00000C00720EC010000F0C107208C040000E4
:1000E00004207146084203D0EFF309800AF068BE8D
:1000F000EFF308800AF064BE704708B5014807F0C6
:100100003BFCFEE72A57020008B5024807F034FC22
:10011000FEE700BF3557020008B5024807F02CFC87
:10012000FEE700BF4057020008B5024807F024FC74
:10013000FEE700BF4B57020008B5024807F01CFC61
:10014000FEE700BF5857020008B5024807F014FC4C
:10015000FEE700BF6657020008B50AF0C1FA0AF0D0
:1001600063FBBDE808400AF0CFBA0B4610B55C1A35
:10017000944204D2441AE45843F8044BF7E710BD04
:1001800003461A1A8A4203D2002243F8042BF8E7E6
:10019000704716480AF0CAFB14480AF0CAFB144C10
:1001A000144B9C4207D294E803000C3454F8042CFE
:1001B000FFF7DBFFF4E7104B9C4206D254F8080B24
:1001C00054F8041CFFF7DCFFF5E70CF085FB0AF0A0
:1001D000C7FB01F019FE02F02FFC4FF416400AF0A5
:1001E0000DFF064807F0C8FBFEE700BFE03F082010
:1001F000CC000100D8000100E00001007A570200A5
:10020000144A70B51368014613B94FF08053136058
:100210001068114B4518114E2B44B34298BF104B38
:100220000C4C96BFC81825602060126898BF18460D
:100230000C4B9A4281BF0C4A064B00201A6039B120
:100240000A4A136801331360094B1860094B19609F
:1002500070BD00BFF4C10720FF7FFFEFFE3F071016
:100260007CC60720FF3F082000400820FCC1072073
:10027000F0C10720F8C107200CF04ABC0CF050BCBC
:100280000CF04EBC10B504468AB068460CF0ECFE8B
:10029000204A214B2260089A2049A260079A626096
:1002A00052B90A681E4882428ABF02F1604202F1D6
:1002B0007042A2F5E82262606268B2F5803F82BFB8
:1002C00002F17042A2F5E82262600022E2600A6850
:1002D00013498A4205D8C3F1405303F50C239B1AF6
:1002E00009E010498A4207D8C3F1804303F580131F
:1002F0009B1A002B00DDE36020460B4BE2611B687C
:10030000A3610A4B1B686361094B1B6823610AB038
:1003100010BD00BF7C0600007CC60720F4C107208A
:1003200000800010FF3F0820F0C10720F8C107201F
:10033000FCC1072000207047FEE70000014B186059
:10034000704700BF08C20720014B1860704700BF0C
:1003500000C2072008B502480DF018FEFEE700BFF6
:10036000582E020008B502480DF010FEFEE700BF4F
:10037000722E02000020704701207047F8B5084B2C
:1003800016461A680F461C4642B10D46EB1BB34297
:1003900004DA236815F8010B9847F7E73046F8BDF3
:1003A00008C20720F8B5094B0F46186816461C46C8
:1003B00058B10D46EB1BB34205DA2368002098477D
:1003C00005F8010BF6E726EAE670F8BD00C2072043
:1003D0007047002070470000074B1B689A688242F4
:1003E00007D05A68824204D0DB681B1A5842584131
:1003F00070470120704700BF70C107200020704780
:100400000020704730B504468DB0A8B3684608F0A8
:10041000F5FA9DF80030002503F03F0303939DF8A3
:10042000013003A803F03F0304939DF802300B95BD
:1004300003F01F0305939DF8043003F01F03069398
:100440009DF8053003F00F03013B0793BDF806301C
:10045000C3F30B03A3F26C7308939DF8033003F00E
:1004600007030993BDF80830C3F30B03013B0A935C
:100470000CF080FC84E8210000200DB030BD0000AD
:1004800070B50F4D0F4E2C6814F0010415D128469D
:100490000AF07AFE88B14FF40E70FFF7EDFE3023BC
:1004A00080F835323A2380F8344280F8363280F8CA
:1004B0003742306028460AF073FE306870BD00BFD6
:1004C00028C2072010C2072070B50F4D0F4E2B68B1
:1004D00013F0010416D128460AF056FE90B14FF4ED
:1004E0000E70FFF7C9FE012380F83432312380F803
:1004F00035323A2380F8363280F837423060284669
:100500000AF04EFE306870BD24C207200CC20720DE
:100510002DE9F047ADF50A7D0F4607F092FE041E67
:1005200004DD0AF0A5F8204609F032FE0DF11408AA
:1005300044462B4D0FCD0FC42B68102123600DEBCB
:10054000010200240AA8049409F04CFE25498146C2
:10055000254A384608F0C2FC26460AAD4FF0000A8C
:10056000CA451ED06B69A34217D1AA69049B1644E1
:1005700023B16421B3FBF1F3B2FBF3F395F80CE084
:100580000094A98B02938900019103923846174980
:100590006A6858F82E3008F0A1FC0AF1010A2035EB
:1005A000DEE701340A2CD8D1049B64229E1BB3FBE6
:1005B000F2F30F490F4AB6FBF3F30096384608F002
:1005C0008DFC09F0C7FC102804D938460A491022CE
:1005D00008F084FC01200DF50A7DBDE8F08700BF1E
:1005E0008C2E0200AB2E0200D22E0200D72E02006B
:1005F000F42E0200132F02001E2F020010B50C462D
:10060000ADF5007D68460AF043FB204669464FF091
:10061000FF3208F02DFC01200DF5007D10BD00001B
:1006200030B50C4691B02C49054607F016FD002860
:1006300047D008AB009309AB01930AAB02930BAB15
:1006400003930CAB04932846244906AA07AB07F092
:100650006CFC072801D000203BE09DF83930069A59
:100660000DA862F303038DF83930079A9DF83830EE
:1006700062F304038DF83830089ABDF83A3062F31B
:100680000B03ADF83A30099A9DF8363062F3040353
:100690008DF836300A9A9DF8353062F305038DF8EF
:1006A00035300B9A9DF8343062F305038DF8343001
:1006B0000C9A9DF8373062F302038DF8373008F05A
:1006C000C5F908F05FFA06490246204608F006FC24
:1006D000012011B030BD00BF482F02004C2F020096
:1006E0004D4F0200F7B50D464E49044607F0A5FDF3
:1006F000064640B106F0D4FF28464B494FF0FF3282
:1007000008F0B6FB8BE02046484907F096FD60B341
:1007100006F0EAFF46490246284608F0DFFB06F0ED
:10072000EFFF44490246284608F0D8FB06F0E2FFF6
:1007300041490246284608F0D1FB304606F0CAFF80
:100740000646012006F0C6FF0446022006F0C2FF5E
:100750000746032006F0BEFF009701903749284660
:100760003246234608F0BAFB59E02046344907F0E8
:1007700074FC50B101212022204607F00CFD2046D8
:1007800007F05DFD07F0D8F849E020462D4907F055
:1007900064FC064620B920462B4907F05EFC60B396
:1007A00020462A4907F047FC60B92046284907F04F
:1007B00042FC28B92046274907F03DFC044602E0E8
:1007C000032400E002242046314607F00BF8224AB9
:1007D000224B002E18BF1A463CB1012C07D01C49F1
:1007E0001A4B022C18BF0B4602E01D4B00E0194BC0
:1007F00028461C4908F072FB11E0204607F01FFD57
:1008000019491A4A0090F623012006F0F9FF204604
:1008100007F015FD16490246284608F05FFB012047
:1008200003B0F0BD872F02008D2F0200A62F02001B
:10083000AD2F0200C22F0200D72F0200F62F0200B8
:10084000263002002A30020032300200822F0200DD
:100850007C2F02009A4102006D2F0200652F0200DA
:10086000762F02003B30020054300200A02E02001E
:100870008730020030B589B004AB002400930D46E8
:100880000222194903AB0394049407F05CFB02288D
:1008900027D107AB009305AA0398049906AB0594EA
:1008A0000694079403F032FC024638B1049B2846B4
:1008B00000930E49039B08F011FB10E0059A069B7C
:1008C000002A079C08BF0122002B08BF01232846ED
:1008D0000749B4FBF2F2B4FBF3F308F0FFFA01208E
:1008E00000E0204609B030BD3241020095300200E0
:1008F000B43002002DE9F0470D46ADF5856D3B495A
:10090000064607F034FC3A498146304607F058FC69
:100910003749304607F074FC304607F090FC01225E
:10092000014681A805F012FC044640B1304607F0AC
:1009300086FC30490246284608F0D0FA50E00DF116
:10094000040A21464FF4007250460CF035F9009429
:100950000AF08AF9A04606460F4681A851464FF490
:1009600000726B4605F08BFC08B9009B33BB81A875
:1009700005F05DFEB9F1000F19D00AF075F94FF4DA
:100980007A7200230BF0DCFB002304464FF47A72EA
:10099000304639460BF0D4FB201A14BF034601231E
:1009A000284615494246B8FBF3F308F097FA284663
:1009B00012494FF0FF3208F05BFA11E09844B9F1A8
:1009C000000FCAD14C46009B9C42C6D22B681AF835
:1009D00004105B6828464FF0FF3298470134F2E775
:1009E00001200DF5856DBDE8F08700BFE230020003
:1009F00032410200EB300200FF300200A636020056
:100A00002DE9F0470023BEB00C46554905460C932E
:100A100007F013FC20B9284607F011FC064600E059
:100A2000504E15A8314605F0BAFE054620462DB1B8
:100A30004D4932462B4608F051FA8CE04B4932467C
:100A400008F04CFAA8461EAF802315A80DA91397ED
:100A5000149305F0E8FE002865D19DF83D30002B89
:100A600061D09DF83C10DDF834C011F0100F09BFC3
:100A70000C9B442263440C930ABF2D22013508F1DC
:100A8000010811F0010F14BF52232D2311F0020FA2
:100A900014BF4FF0480A4FF02D0A11F0040F14BF95
:100AA0004FF053094FF02D0911F0200FBDF8381009
:100AB00014BF4FF0410E4FF02D0ECDF808E04FEA75
:100AC000612EBDF83A000EF2BC7ECDF80CE0C1F309
:100AD000431E01F01F010591C1120691C0F345109C
:100AE0000DF13D01CDF810E0CDF820C0079009913F
:100AF000CDF800A0CDF8049020461D4908F0EEF98D
:100B000020461C494FF0FF3208F09EF93946204636
:100B10004FF0FF3208F098F9204611494FF0FF32AC
:100B200008F0A6F98FE700953EAD55F8C83D12498B
:100B30004246204608F0D2F9304629460BAA05F075
:100B4000A1FE40B90B9B20469A780C9B0B495A4357
:100B5000520808F0C3F901203EB0BDE8F08700BF9D
:100B6000A63602001A3102001D3102004131020096
:100B70005C310200893102008D310200B731020080
:100B800070B50D46064607F05AFB0446304607F09E
:100B900056FB05F039FF064A064B0749002818BFE7
:100BA00013462846224608F099F9012070BD00BF7F
:100BB000773302006D330200CB31020070B50D4671
:100BC000064607F03CFB0446304607F038FB05F0CC
:100BD000BEFE064A064B0749002818BF13462846A2
:100BE000224608F07BF9012070BD00BF7733020078
:100BF0006D330200E73102007FB503AB00240093A0
:100C00000E4602220F4902AB0294039407F09BF9AF
:100C1000022814D1029D039C2846214605F09EFF20
:100C2000094B0A492A4600280CBF084618460849BD
:100C300000902346304608F051F9012000E020469C
:100C400004B070BD32410200773302006D33020000
:100C5000F931020030B5ADF50D7D0C46054607F0C3
:100C6000EEFA0A22014603A805F070FA40B12846C0
:100C700007F0E5FA1F490246204608F02FF935E053
:100C80008DF8070002901C4920467E2242F2107324
:100C900008F024F92046194908F020F92368204675
:100CA0001B680DF1070142F21072984718B19DF8C8
:100CB00007307E2B03D103A805F0B9FC16E003A88A
:100CC0000DF10701012202AB05F097FB10B9029B61
:100CD000012B02D020460A49DEE7236820465B68E4
:100CE0009DF807104FF0FF329847D7E701200DF528
:100CF0000D7D30BD11320200383202007032020028
:100D0000903202002DE9F047ADF5407D002304ACA0
:100D1000236003930D4600944249022203AB07F07F
:100D200012F9022806D028463F494FF0FF3208F05A
:100D30009FF871E017A8216805F031FD18B1284629
:100D40003A49226807E017A8039905F028FD28B161
:100D500028463749039A08F0C1F85DE040A94FF4EE
:100D6000807205A807F0B0F80AA880A94FF4807235
:100D700007F0AAF820AB159317A880230FA91693A4
:100D800005F051FD002841D19DF84530002B3DD0A4
:100D90009DF8443003F0100303F0FF06002BE9D167
:100DA000039A0DF1450305A8224907F099FA226834
:100DB0000DF145031F490AA807F092FA05A807F0AC
:100DC0003EFA80460AA807F03AFA074605A8DDF879
:100DD0003C9007F034FA82460AA807F030FA32460F
:100DE000014633460096504603F090F9124A134BE1
:100DF000CDF8009000280CBF18461046104901900D
:100E0000424628463B4608F069F8B3E70AA807F0CF
:100E100071F805A807F06EF801200DF5407DBDE8DA
:100E2000F08700BF32410200B7320200FC320200FC
:100E30002133020041330200773302006D33020098
:100E400047330200F8B50D462349064607F0F5F989
:100E50000446074628B1FFF737FB002100F2352092
:100E60000AE030461D4907F0E8F9044650B1FFF7A3
:100E700007FB394600F235200A4605F0FFFE184907
:100E8000184B1EE03046184907F0D7F9044648B120
:100E9000FFF71AFB012200F2352105F019F9134979
:100EA000134B0EE03046134907F0C7F9044680B1F2
:100EB000FFF7E6FA012200F2352105F009F90E49A3
:100EC0000E4B002808BF19464FF0FF32284607F0A6
:100ED000CFFF2046F8BD00BFCE330200D83302005A
:100EE0007033020066330200E53302008D330200E6
:100EF0007D330200EE330200B2330200A43302005D
:100F000070B5224986B0054607F097F904460646B3
:100F100008B1012034E028461D4907F08EF9044647
:100F200008B130462CE028461A4907F086F90446F5
:100F300008B1022024E02846174907F07EF904464C
:100F400008B103201CE02846144907F076F904464E
:100F500008B1042014E02846114907F07EF8044641
:100F600080B10121284607F0C2F8294601A807F000
:100F700030FA01A801F07AFE01A806F0BBFF0520B7
:100F800001F06AFE204606B070BD00BFFA330200D1
:100F9000FD33020001340200083402000F34020065
:100FA0009E42020008B508464FF0FF32084907F09C
:100FB0005FFF06F075FB4FF4FA6009F0E9F84FF0B7
:100FC0008043AA221A7200221A70012008BD00BFB5
:100FD0001334020010B501200C4606F069FF38B149
:100FE00000210A460B4608F04DFC2046044901E06A
:100FF000204604494FF0FF3207F03AFF012010BDB0
:10100000243402003A34020038B5064C236833B960
:101010001C20FFF731F9054607F0F8FB2560206832
:1010200038BD00BF1CC207202DE9F04F0D46C7B0E8
:101030005549814607F028F854498246484607F04A
:1010400023F853498346484607F01EF800270DF160
:10105000100805AE044602970397C8F80070376081
:10106000BAF1000F45D0009648464A4902AA03ABA0
:1010700006F05BFF012807DC284647494FF0FF32A6
:1010800007F0F6FE38467CE00DF118084FF4807446
:101090004046394622460BF08FFD336813B90123D1
:1010A000336003E0B3F5807F88BF3460FFF7ACFFA7
:1010B00033689DF808109DF80C200093434607F014
:1010C000D2FF364A364B3749002808BF1346284618
:1010D000029A07F003FF002433689C424ED2039A21
:1010E00018F80430224428462F4907F0F7FE01344F
:1010F000F2E7BBF1000F2CD0CDF8008048462B4919
:1011000002AA03AB06F011FF032807D0284628499E
:101110004FF0FF3207F0ACFE504632E0FFF774FFAD
:101120009DF808109DF80C2098F8003007F0B0FFEB
:1011300048B1039B284600931E49D8F80020029B23
:1011400007F0CCFE1AE028461B49029A07F0C6FEBB
:1011500014E0A8B102230293029BFE2B10DCFFF7E0
:1011600053FF9DF8081007F09EFF20B12846134951
:10117000029A07F0B3FE029B0233ECE7012000E085
:10118000204647B0BDE8F08F55420200733402009C
:101190007934020082340200913402007733020075
:1011A0006D330200B2340200D6340200E63402008D
:1011B000F63402001D3502003735020054350200B6
:1011C0002DE9F04F5F4C91B023680E4633B92C20C7
:1011D000FFF752F8054607F0ADFD25602768FFF7D9
:1011E0004FF90DF1400B00244BF80C4D00F2352067
:1011F00059460CAA05F046FB48B90C9A0D9C956916
:101200009378023D5C435D4364086D0800E0254629
:101210004D4B1A6898467AB90C20FFF72DF8814695
:10122000FFF7F2FE902389F804300023C9F800008C
:10123000C9F80830C8F80090D8F8000002F054FF50
:1012400080460AF037FF82460AF090FD014640468C
:101250000AF0D6FC3D490AF0DDFD0AF02BFF81467D
:10126000584609F073FB03F08DFE50B307F004FD00
:1012700003F072FE0023024698469B4693420DD02F
:1012800018460B920A9303F0CBFE0A9B584588BF81
:1012900098460B9A88BF83460133EFE707F004FDB9
:1012A000642303FB0BF32A4A3046B3FBF2F3C3F18A
:1012B00064038DE80809274922462B4607F00EFEF5
:1012C00005E03046244922462B4607F007FE234C12
:1012D00023681BB90120FEF7CFFF2060206802F0D1
:1012E000C7FE044607F04EFC9DF83930019003F02C
:1012F0000F0302939DF83830009403F01F0303930B
:10130000BDF83A303046C3F30B0304939DF83630F2
:10131000134903F01F0305939DF83530524603F03F
:101320003F0306939DF8343003F03F030793BB8CD3
:101330000893FB8C09934B4607F0D0FD012011B0B8
:10134000BDE8F08F20C2072014C207200000204112
:10135000A08601007A350200AE35020018C20720CF
:10136000BC35020070B5ADF50A7D05460C4606F0A9
:10137000D3FD0B2803DD204620490C2237E0284608
:1013800006F05DFF0122014601A804F0DFFE0646DB
:1013900038BB01A805F04BF9284606F050FF184964
:1013A0000246049B204607F099FD236820469B686F
:1013B00098470A2008F0ECFE09F0ECF9284606F000
:1013C0003EFF02460F4B0068516803C390680E4A07
:1013D000186043F80C2C4FF08043AA221A721E703A
:1013E00007E0284606F02BFF02462046074907F093
:1013F00075FD01200DF50A7D70BD00BF3936020074
:1014000060360200484002400DD0ADDEA736020033
:10141000F0B5404CA5B023680646DB070D460CD45A
:10142000204609F0B1FE40B14FF480600BF070FB34
:10143000394B1860204609F0B3FE3046374906F0B4
:1014400023FE0746044610B30021802204A80BF0B7
:10145000B3FB00230293039303AB0093304904AA28
:1014600002AB304606F061FD2B4A029B116804A8CE
:10147000039A13B902F0EAFE01E002F00AFF034604
:10148000284A29492846002B18BF114637E0304624
:10149000264906F0F9FD0746002838D0304604AB4F
:1014A000234903AA039404948DF8084006F03DFDF7
:1014B000039E049B3344B3F5806F0DDD28461D4920
:1014C0004FF4806221E0144B9DF808201B689A5568
:1014D0009DF8083001361C44039B049AF31A93428A
:1014E00010DAB6F5806F0DDA2B6828461B6802A962
:1014F0004FF4FA6298470028E5D128460E4907F0D4
:10150000EDFC04E0284622460C4907F0E7FC38468B
:1015100025B0F0BD30C207202CC20720D236020011
:10152000D9360200C0360200BC360200E93602009D
:10153000F0360200FA3602001E3702002E37020093
:1015400030B50C46054687B00A4907F0C7FCA17ABA
:1015500062880091E17A23880191E188284602910E
:1015600021890391A1880491034907F0B7FC07B0D2
:1015700030BD00BF3F370200753702001FB501A81C
:101580000C4602F0A7F801F091FD01A902462046A1
:10159000FFF7D6FF012004B010BD00002DE9F04197
:1015A0008CB003AB002400930E4615463A49022244
:1015B00002AB0294039406F0C6FCA04239DD029807
:1015C0000BF09BF85FFA80F8039818B10CF0B9FFA4
:1015D000C4B200E0044604A8002102F003FC30B1CC
:1015E00030462E494FF0FF3207F042FCF3E700355A
:1015F00018BF01250223009340462946039A23463B
:1016000001F08AFE074638B9304625494FF0FF32CF
:1016100007F02EFC01273BE0002D39D004A84FF441
:101620007A7102F0E9FB70B39DF8103043452AD17E
:1016300001E027462CE09DF817300C2B04D13046F2
:1016400006A94246FFF77CFF3046B4B9154907F0BA
:1016500045FC9DF817309C420ADA336804AA2244FC
:10166000117A5B6830464FF0FF3298470134F0E75B
:1016700030460D4907F032FC0AE00C494FF0FF32CA
:1016800007F0F6FB04E030460949029A07F026FC11
:1016900038460CB0BDE8F0813241020093370200B9
:1016A000B5370200DD37020011470200F1370200B2
:1016B0000E38020038B50D4606F0C3FD0446C0B230
:1016C00001F0E8FC054A064B0649002808BF13460E
:1016D0002846224607F002FC012038BD34380200BB
:1016E0006D3302003B38020037B50C4601F056FE60
:1016F00005461649204607F0F1FB154920462A46C3
:1017000007F0ECFB2046114907F0E8FBD5B1114981
:10171000204607F0E3FB20460C4907F0DFFB0025DD
:10172000E8B201F025FE013540B1817802784378B6
:1017300000912046084907F0D1FBF1E72046034914
:1017400007F0CCFB012003B030BD00BF52380200CF
:101750006D38020087380200A238020030B58BB025
:101760000AAA4FF47A730C4642F8243D174906F052
:10177000DCFB002502A8019902F034FBD8B1204619
:1017800013499DF8082007F0A9FB00259DF80F30AC
:101790009D420ADA236802AA2A44117A5B6820462D
:1017A0004FF0FF3298470135F0E72046094907F02E
:1017B00095FB0125DEE72DB9204607494FF0FF32A2
:1017C00007F056FB01200BB030BD00BFF73602001A
:1017D000BD380200A5360200D43802002DE9F347D7
:1017E0003C4C074626688946002E62D12420FEF72D
:1017F00043FD0423054680E848008660C66020213A
:1018000030460CF02DFCAE68E8604FEA8608072EE3
:101810000ED81020FEF730FD8246002110220BF07A
:10182000CBF9EB68013643F808A008F10408EEE7AD
:10183000002608234FF001086B6085F820802846B9
:101840002549264A264B0096256005F0A5FC206810
:101850002449254A254B009605F09EFC2068244922
:10186000244A254B009605F097FC20682349244A1A
:10187000244B009605F090FC20682349234A244B12
:10188000009605F089FC20682249234A234BCDF8B5
:10189000008005F081FC20681E49214A214B0096FA
:1018A00005F07AFC009620681F49204A204B05F07D
:1018B00073FC38461F4906F0C0FC18B138461E4973
:1018C00006F07CFD39464A46206802B0BDE8F04784
:1018D00005F044BD38C20720891B0100E53802002D
:1018E000EC3802005D190100263902002F39020090
:1018F0005D1701008339020086390200B516010028
:10190000083F0200A9390200E9160100EF39020080
:10191000D33902009D150100383A0200F639020061
:10192000373A02003C3A02007D1501007C3A020081
:10193000613A0200A6360200823A020038B5064C2F
:10194000236833B95820FEF797FC054607F036F8B0
:101950002560206838BD00BF34C207202DE9F04F54
:101960000446ADF2DC5D80220DF1B40988460DA875
:1019700000210BF021F90021802248460BF01CF9D0
:1019800006AE002333602046009675490DAA4B46EB
:1019900006F0CBFA032801D00020DDE0EDA80DA968
:1019A000012204F0D3FB05460028F5D1FFF7C6FF5E
:1019B00033684DA980F853308022044608A88DF87A
:1019C0001750079506F080FACDF80090404665491B
:1019D0000DAA336807F082FA2F46EDA86DA94FF4DF
:1019E000007207AB04F04BFC38B1EDA804F01FFE09
:1019F00008A806F07FFA0120AEE0079B002BF4D088
:101A00006E1C5949079A204607F068FA2368204659
:101A10009B6898476DAB9B46751E4FF0000A07996F
:101A2000C3EB0B028A4222680FD20393CDF808B0B1
:101A3000D2F804C020464FF0FF321BF8011BE047EC
:101A4000029B1A78039B9244E9E7936820469847E3
:101A500008A806F0F4FB834608A806F060FA4FF4E5
:101A60007A7302465946204607F010FA01212022D7
:101A700008A806F090FB08A806F0E3FB504520D02C
:101A800008A806F0DEFB394903465246404607F0F7
:101A900025FA2046364907F021FA236820469B683C
:101AA0009847236820461B680DF117014FF47A729E
:101AB00098470028F5D1022E06F1010395D81E465D
:101AC0009FE7079B2B494A46009320463B4607F079
:101AD00005FA236820469B68984708A806F0AFFBE4
:101AE000824608A806F01BFA514602464FF47A7364
:101AF000204607F0CBF908A81F4906F09CFAD0B998
:101B000008A806F09CFB1D490246404607F0E6F98E
:101B10002046174907F0E2F9236820469B6898475A
:101B2000236820461B680DF117014FF47A7298471D
:101B30000028F5D1BFE708A8114906F03FFC079B34
:101B400040461F440F493A46F09B07F0C7F9002D65
:101B50003FF443AF013D40E70DF2DC5DBDE8F08F9F
:101B6000873A0200963A0200AD3A0200BF3A0200FC
:101B7000A5360200E63A0200FC3A0200FF3A0200F3
:101B8000A6360200373B02002DE9F041074686B039
:101B900006AA002442F80C4D0E463C4906F0C5F951
:101BA00038460121202206F0F6FA039B002B63D071
:101BB000384606F0B1F900285ED0FFF7BFFE0546B3
:101BC0008DF80B402B6828461B680DF10B01052290
:101BD000984704460028F5D1039B384685F85330D2
:101BE00006F02DFB274601464FF0FF32284607F04E
:101BF0003FF92B6828469B689847254B0594186841
:101C000004902B6828461B680DF10B014FF47A7283
:101C1000984778B10DF11501032205A80AF0B1FF2C
:101C20009DF80B8005A804A904228DF817800AF0FE
:101C30008DFF38B91822B7FBF2F302FB137262B1C1
:101C400001330AE0336830465B68414601220137C0
:101C500098470028D5D10134D3E730460D493A469C
:101C600007F03CF974B16123009330460A492246DB
:101C70000A4B07F033F905E0304609494FF0FF32CF
:101C800007F0F6F8012006B0BDE8F081F736020053
:101C90003B370200433B02006A3B0200233C020048
:101CA0005F3C020001480CF071B900BF8B3C0200A0
:101CB00038B504460D4609F04FF9074BB0FBF3F079
:101CC0000223B0FBF3F2954201D3236138BDB3F593
:101CD000807FFAD00233F4E740420F007FB500F274
:101CE00035260C460122314604F0F2F9054650BB78
:101CF00004A941F8040D02AA304604F0C3FD00BB5C
:101D0000029A039B9078926903FB00F1023A4243E6
:101D10005208B2F5004F104834BF01254FF48065DA
:101D20004FEA51010D4BB1FBF5F128BF0346B2FB61
:101D3000F5F28DE80A000A4821460CF0B1F80120BE
:101D400008E0084B00E0084B084821462A460CF002
:101D5000A7F8002004B070BDC93C0200C63C0200D8
:101D6000D33C0200CC3C0200D03C0200013D02000A
:101D700038B5074C23684BB90820FEF77DFA0546B5
:101D8000FFF742F9402328602B712560206838BD99
:101D900044C2072038B5054C256825B90120FEF757
:101DA0006BFA05702060206838BD00BF40C2072074
:101DB00038B5084C23685BB90C20FEF75DFA054680
:101DC000FFF722F990232B7100232860AB60256078
:101DD000206838BD14C2072010B5044C23681BB915
:101DE0000120FEF749FA2060206810BD18C20720C4
:101DF00010B5044C23681BB90120FEF73DFA2060A2
:101E0000206810BD3CC20720AD49AE4A4023F0B562
:101E10008B614FF0007393614FF480338B61AA4B59
:101E2000ADF5057D1868072520F0F00018601868EA
:101E3000022440F050001860186820F440501860E8
:101E4000086840F040000860186820F47C201860A2
:101E5000186840F428201860186820F47000186092
:101E6000186840F420001860186820F0404018609E
:101E7000186840F000401860586820F03C00586036
:101E8000586840F028005860586820F003005860F7
:101E9000086840F480300860586820F4405058606A
:101EA000086820F480000860D96821F44031D960C6
:101EB000116841F080711160596821F44021596026
:101EC000596841F4802159609868804901409960BF
:101ED000116841F4897141F001011160996821F4A0
:101EE00070119960996821F070419960116821F42E
:101EF00046411160D96821F03001D960D96841F0BC
:101F00003001D960D96821F47011D960136843F0A9
:101F100000731360136823F08063136006F0C0FA47
:101F20000A20012108F038FE0A20012108F04CFEA9
:101F30006748012105604460FFF7BAFE06F02CFEF9
:101F40001520012108F028FE1520012108F03CFE93
:101F50006048012105604460FFF7AAFEFFF754F8CE
:101F6000642106F01DFC10B95B480CF00FF808F076
:101F700051FE01F011FF10B958480CF007F84FF46A
:101F8000FA6006F04BFAFFF78DFE08F0E5FF09F066
:101F9000E9FE534909F0F2FF09F06AFD02460B46DB
:101FA00050480BF07DFF08F0CBFC052804AC14D1A1
:101FB000002363604C4B1B682360FFF773FE4B4BA1
:101FC0004B48D96C1A6D5B6D00940BF069FFFFF7FD
:101FD00069FE41F2883006F021FAFEF751FA4549D0
:101FE000FFF77CFE054668BB43480BF059FF03F042
:101FF00041F8FEF745FA29462A4600F2352004F05A
:102000003DFE3E4B3E4A00280CBF104618460BF0E2
:10201000BDFFFEF735FA3749FFF760FE90B9394842
:102020000BF0B4FF02F0A8FF014637480BF038FF71
:1020300002F092FF054602F09FFF05FB00F13348D6
:102040000BF02EFF324E334F336813F0010516D1DB
:10205000304609F099F890B14FF40E70FEF70CF984
:10206000012380F83432312380F835323A2380F866
:10207000363280F837523860304609F091F82649F8
:102080003868264DFFF72AFE11481821FFF710FE89
:10209000FFF708FE2B684BB90820FEF7EDF806465F
:1020A000FEF7B2FF3823306033712E60286801F0EC
:1020B000F2FE0546B0BB1A480BF068FF33E000BFE4
:1020C00000C0092020C0092000C00240F0FCFCFF35
:1020D0000000034000800840453D0200763D0200BC
:1020E000002474499B3D02004440024000400240ED
:1020F000B33D02002B3E0200333E0200393D020098
:10210000343D0200703E02008F3E02009E3E0200FF
:1021100024C207200CC207209C3302004CC20720B7
:10212000B93E02000125FFF743FE01F0B3FF06466A
:1021300018B972480BF02AFF3546FFF719FE01F077
:102140002BFF064618B96E480BF020FF35466D4E42
:1021500033681BB90120FEF78FF83060306801F05A
:10216000E9FEFFF739FE01F081FFFFF713FE01F0F2
:102170004DFFFFF73DFE01F07EFFFFF70BFE002154
:1021800001F046FF8DB9FFF78DFDFFF7F1FD2D2121
:1021900001F0EAFEFFF7ECFD2D2101F0F1FEFFF763
:1021A000F9FDFF2101F034FF0CE0FFF7E1FD0546EA
:1021B000FFF7FEFD01F098FF09F0A2FFC1B228462B
:1021C00001F006FF0021102220460AF0F5FC4E48DF
:1021D00021460F22002302F016F880B920460AF0AB
:1021E0008CFAC5B2284600F055FF484A484B2946AC
:1021F000002808BF13464748434A0BF051FEFFF73B
:10220000EBFD01F035FF054600200DF041F92844B3
:102210000BF0C4FE4FF40072002120460AF0CCFC03
:10222000204608F035FD21463B480BF039FEFFF70C
:1022300039FD8022002120460AF0BEFC204602F033
:1022400077FE2278FF2A04D0214634480BF028FE7E
:1022500029E0FFF7CDFD01F011FF09281DD130481D
:102260000BF094FE21462F480BF0CCFF21462E4860
:102270000BF016FE2D480BF089FE00232C4803A915
:1022800003930BF0BFFF9DF80C30592B03D1204670
:1022900002F02CFE07E0274803E027480BF076FE0B
:1022A00026480BF073FE4FF208031C684FF20C0334
:1022B0001D684FF210031E684FF2040319684FF4B3
:1022C00070431A68A40AAD0A1D480BF0E9FD2246C6
:1022D00029461C480BF0E4FD31461B480BF0E0FD9D
:1022E000FFF7E0FC012005F011FA18480BF04EFE54
:1022F000FFF7D8FC0DF5057DF0BD00BFD43E020010
:10230000EE3E020048C20720073F020034380200B8
:102310003F3D02000D3F02004D4F0200413F0200D1
:102320005D3F02007F3F0200843F02009F3F0200AA
:10233000E23F0200E63F0200FE3F02002C400200A6
:102340005E4002008A400200B7400200D440020012
:1023500001207047012070470120704710B5044CE0
:1023600023681BB90120FDF787FF2060206810BD9E
:1023700048C2072001207047F8B504460E46C068E1
:1023800089000BF06DFEA568E060AF00B5420BD28E
:102390000C20FDF771FF0023036043600372E368C4
:1023A0000135D8510437F1E76660F8BD38B5044609
:1023B0000F4B00250360636DE06D9D4205D250F820
:1023C0002500FDF75BFF0135F5E708B1FDF758FF84
:1023D0000025A36B206C9D4205D250F82500FDF727
:1023E0004DFF0135F5E708B1FDF74AFF204638BD3E
:1023F0001041020010B50446FFF7D8FF2046FDF754
:102400003DFF204610BD0000F7B5044600250B46F1
:102410004FF480520095254905F030FD244B0426E9
:1024200023606663A563E563256404F1340002213B
:10243000FFF7A2FF26656565A565E565284660216D
:102440000BF00EFEA56DE065AE00172D0CD8102028
:10245000FDF712FF0746002110220AF0ADFBE36DE5
:1024600001359F510436F0E718236365012384F892
:102470007030104E0023A4F87430A4F87630A367AF
:10248000002200230027C4E92023C4E9226708F0C2
:10249000EBFB4FF47A72002309F052FE8019794168
:1024A000C4E92001204603B0F0BD00BF284102006E
:1024B00010410200C0D401002DE9F04191E8600014
:1024C0000F7A14468FB1082A23D1304605F024FD37
:1024D00000281CDD284614494FF0FF3206F0B4FCFA
:1024E0003046012105F017FE08E00A2A19D00D2A0E
:1024F00012D03046214605F036FF97B12B682846AA
:102500002146BDE8F0415B684FF0FF3218470724D1
:10251000F4E70A2A02D1F1E7BDE8F0810D2AE8D1FB
:10252000ECE7BDE8F08100BF31410200F8B5044698
:10253000142015460F46FDF79FFE8021064605F044
:10254000C2FEA36BE26B9A4206D3616B591803D2A9
:1025500004F13400FFF710FFE36B226C591C52F8B2
:102560002330E1631F605E601D72F8BD2DE9F0430A
:10257000CF6B85B006460D4601AC4FB94FF47A706B
:1025800007F006FE204639460C220AF015FB47E00C
:102590000B6C1B6893E8070084E8070000238DF8A4
:1025A000033007F0BFFC80460027EB6B9F4263D2ED
:1025B0002B6C4FEA870953F827301868037C33B136
:1025C00003680DF103011B680022984708B9013721
:1025D000EBE7EB6B9F422BD22B6C53F8093093E85F
:1025E000070084E807009DF8032028462146FFF7EE
:1025F00063FF08F039FB4FF47A72002309F0A0FD65
:10260000D5E9222380185941C5E92001029805F037
:1026100083FC0746029805F082FC013887420ADBFA
:1026200094E8070086E80700304605B0BDE8F0836F
:1026300005F14403D3E7D5E92223134324D008F05E
:1026400013FB4FF47A72002309F07AFDD5E92023B9
:10265000994208BF904217D308F006FB4FF47A72F4
:10266000002309F06DFDD5E922238018594100238C
:10267000C5E920010193D3E707F054FC4045C5D1DB
:10268000022007F085FDC1E79DF803300A2B88D1B1
:10269000C6E70000F0B5064685B020480BF000FC08
:1026A00001A83146FFF762FF019C1CB91C480BF0E2
:1026B0006DFC30E0029F384605F02EFC00282ADD34
:1026C00008F0D2FA0546F8B1B6F8743006F15000B9
:1026D0000133A6F874303946224604F03FFE114B10
:1026E00000261868009023681DF806105B682046D5
:1026F0004FF0FF3201369847042EF4D108F0B4FAB7
:10270000411B09480BF0CCFB384605F00AFC236856
:1027100020469B689847012005B0F0BD3441020077
:10272000A6360200014102003A41020038B5064CCB
:10273000236833B92C20FDF79FFD054606F0FAFA11
:102740002560206838BD00BF20C2072010B50446B0
:10275000FFF7ECFF03682146BDE810405B684FF0CF
:10276000FF32184713B5002302AC04F8013DFFF710
:10277000DDFF036821461B684FF0FF3298479DF844
:10278000070002B010BD00002DE9F04100F1500437
:102790008AB000250746009520465F495F4A604B96
:1027A00004F0FAFC009520465E495F4A5F4B04F056
:1027B000F3FC009520465E495E4A5F4B04F0ECFC5A
:1027C000009520465D495E4A5E4B04F0E5FC0095AD
:1027D00020465D495D4A5E4B04F0DEFC00952046D4
:1027E0005C495D4A5D4B04F0D7FC009520465C498E
:1027F0005C4A5D4B04F0D0FC009520465B495C4A86
:102800005C4B04F0C9FC009520465B495B4A5C4B7D
:1028100004F0C2FC009520465A495B4A5B4B04F029
:10282000BBFC009520465A495A4A5B4B04F0B4FC65
:102830000095204659495A4A5A4B04F0ADFC009580
:1028400020465949594A5A4B04F0A6FC00952046A7
:102850005849594A594B04F09FFC00952046584965
:10286000584A594B04F098FC009520465749584A5D
:10287000584B04F091FC009520465749574A584B55
:1028800004F08AFC009520465649574A574B04F0FD
:1028900083FC009520465649564A574B04F07CFC71
:1028A000009520465549564A564B04F075FC009554
:1028B00020465549554A564B04F06EFCFFF736FF4B
:1028C0004FF480734FF416412022054606F012FAA9
:1028D000804601262E744F48FDF736FD4E48FDF721
:1028E0002DFD384629463246FFF720FE03A908226F
:1028F00005A805F0E9FA05A8484905F05FFD05A916
:102900002A46204604F02AFD05A805F0F3FA4046C1
:102910000AB0BDE8F08100BF110501009A41020034
:1029200050410200FD050100874102008F41020075
:10293000C1110100AD4102009F41020021060100CA
:10294000F5410200B4410200F5080100FA4102001D
:10295000FE410200750801009D4202005A42020039
:10296000050D01009C420200A0420200010A010084
:10297000EB420200EE420200810B01001C43020008
:1029800022430200F90B0100474302004A430200C0
:10299000550C0100515B020077430200BD0B0100A2
:1029A0009C4302009F43020029100100C243020021
:1029B000C6430200450E010099440200A1440200F2
:1029C000A50F0100E4440200EB440200E50601000B
:1029D000FE44020002450200D50F0100014602003C
:1029E00007460200DD170100923D02002F4602005B
:1029F000010F0100692F0200594602001114010065
:102A0000084802001447020065130100DF3302008A
:102A1000D1470200652701004D270100823A0200DC
:102A2000704708B501F0F2F9012008BD10B5044661
:102A3000FDF724FC204610BD37B59020FDF71CFCA7
:102A400004460321FFF7E0FC204605F0E7F93420B7
:102A5000FDF712FC054600244FF400720D49009466
:102A6000042305F00BFA0C4B28462B6005F0D6F931
:102A70003420FDF701FC054600F0AEF8284605F0CD
:102A8000CDF92046214605F0D7F94FF0FF3003B0CD
:102A900030BD00BF923D0200504802007047000068
:102AA00070B5424D424C2B781BB9626922F400028A
:102AB00004E0012B06D1626942F4000262613D4AE2
:102AC00013705FE0022B0FD13A4B1A782AB9626972
:102AD00042F400026261012204E0626922F4000211
:102AE000626100221A704DE0032B0FD163693149F6
:102AF00013F0805315BF6369626943F4000322F445
:102B0000000216BF63616261012319E0042B19D131
:102B100029492A4A0B782748D65C62692EB142F4CB
:102B2000000262610122027003E022F4000262618D
:102B300006700133DBB22E20B3FBF0F200FB123340
:102B40000B701FE0052B1DD11B4E1D48317805F081
:102B50007BFB0378174A312B63690BBF43F40003F7
:102B600023F40003636163610CBF0123002313702E
:102B70003378144A01331178DBB2B3FBF1F201FB75
:102B800012333370104A6369116803F080538B422B
:102B900009D003232B70084B00211970044B5B698B
:102BA00003F080531360012070BD00BF50C20720A6
:102BB00020C0092069C2072068C2072000C0072082
:102BC00054C207206AC207206CC2072010B5044611
:102BD000FDF754FB204610BD37B50446002500958F
:102BE00016494FF40062012305F048F9144B2046C2
:102BF00023606423E361134B03221D70124B1A7090
:102C0000124B1D70124BDA6822F04072DA60DA68FB
:102C100022F44042DA60DA6C22F00072DA64DA6C94
:102C200022F40042DA640B4B1A6822F080521A60D8
:102C30001A6842F400021A6003B030BD7448020002
:102C40009048020069C2072050C2072068C20720CE
:102C500000C0024020C00920024B00221870024B25
:102C60001A70704750C2072068C2072010B5054C83
:102C70000146204605F0A4FB204605F04DF9024B25
:102C8000187010BD54C207206AC2072010B5054C49
:102C9000204605F011FB2046BDE810400249034ADA
:102CA000FDF748BB54C20720F57E010004C207208F
:102CB000242310B503FB010188420BD043783BB1BC
:102CC000038CD4184FF6FF73A34228BF2346038416
:102CD0002430F1E710BD000037B5002302A840F80A
:102CE000043D0C4B04215B6898470B4B019A1C6810
:102CF0000546141B1A60094822460421FFF7D8FF35
:102D0000074802212246FFF7D3FF281C18BF0120E5
:102D100003B030BD70C207203CC3072084C2072027
:102D20005FC3072008B50B4B197803788B420A4B19
:102D30000BBF1A889A880132013214BF9A801A8018
:102D4000064B8170DB6820219847003018BF0120B6
:102D500008BD00BF35C007202CC3072070C2072064
:102D60000A4B02781B789A42094B0BBFDA881A8902
:102D7000013201320CBFDA801A810379C3F3C20237
:102D8000073262F3C5030371FFF7CCBF35C00720DC
:102D90002CC3072010B5002306499A0011F82340E0
:102DA000844201D1881810BD0133042BF4D10020D6
:102DB00010BD00BF4DC3072070B1C3780133DBB233
:102DC000FF2BC37008D10023044A1A44D17804337E
:102DD0004908102BD170F7D1704700BF4DC30720B1
:102DE000242202FB01010346024630B58A4206D086
:102DF0001446243212F8235C002DF7D10FE004466C
:102E000000258B420BD01A79C2F3C2001A8C42EA19
:102E1000004295423CBF1C4615462433F1E720464C
:102E200030BD000038B50546C90001F10804FFF7C0
:102E300053FF1C4B1A782B789A4204D102211A486E
:102E4000FFF7CEFF0CE019480421FFF7C9FFEB782C
:102E500033B990F82330042443F0800380F8233002
:102E6000002380F8203080F8213002462B4690F86D
:102E7000231080F8224021F07F01C4F306240C4384
:102E800080F8234005F1200153F8044B8B4242F8AF
:102E9000044BF9D1064A0379127862F3C503037132
:102EA00038BD00BF35C007205FC3072084C207209C
:102EB00034C0072010B5FFF76DFF0446F8B9FFF7DF
:102EC00069FF0446D8B90F4BDA79D9788A4228BF0E
:102ED0000A46D97A34BF1C1D1C4691422CBF1146AC
:102EE000094CDA7B094B8A4238BF1C460422204633
:102EF000002109F061FE064AD37A0133D3722046DD
:102F000010BD00BF4DC3072055C3072059C307207C
:102F10002CC307202DE9F04105460C464FF024084C
:102F200008FB02188E1D444500F09E8094F8233063
:102F30001A0625D5BDB12A7861788A4205D16F7805
:102F400016F8060C874200F09180E87858B168784E
:102F5000884208D116F8061C914204D1A979A279B9
:102F6000914200F0838094F82220218C03F07F03AB
:102F700042EA0323994274DB2046FFF7D3FE75E053
:102F80006278002A6DD06DB3297901F0C001C029A3
:102F900017D116F8060C6978884202D12878904239
:102FA00064D0E778A87887420CD191420AD116F80C
:102FB000060C2978884205D1A079A979884201D1E7
:102FC00054E079B1A878E17888420BD169789142D0
:102FD00008D116F8060C2978884203D1A079A9797E
:102FE000884249D094F82210208C03F07F0341EAF4
:102FF0000323984235DB002384F8203084F8213005
:103000002379C3F3C201CFB21FB12046FFF7A8FE58
:1030100027E003F0C003C02B19D01C4B16F8060C98
:103020001B78984213D1E378934210D07BB1637937
:10303000032262F307136371E1702046FFF790FEED
:10304000134A2379127862F3C503237100E0012744
:103050006078FFF79FFE18B10021042209F0ACFD53
:1030600027B9243424365EE7BDE8F08120460021EC
:10307000242209F0A1FDF4E72279002363F3C502BD
:1030800084F8203084F821302271EAE735C0072027
:1030900034C00720431EDBB2FD2B9DBF024B1870CE
:1030A00001200020704700BF35C00720014B187871
:1030B000704700BF35C0072007289CBF014B187020
:1030C000704700BF34C007202DE9F74304469146FE
:1030D0001E469DF828500F46002963D0354B93F8C3
:1030E0000080414560D00F2E5ED800285ED020229F
:1030F000002109F061FDFF2F237914BF09F00302BD
:10310000002262F38713032262F302032A4A6770E4
:10311000127884F8008062F3C503284A237113787B
:1031200084F802800133DBB21370A3710BAB0193FF
:1031300015B94FF0010818E0019AE079134652687A
:1031400053F8081B00EB02085FFA88F8013DB8F15C
:10315000180F0193EDB206D80830204409F006FD9F
:1031600084F80780E4E74FF00008DFF8549001236B
:10317000384689F80030FFF70DFE0546FFF71CFEC4
:10318000002389F80030637925B966F3071363716A
:10319000E57005E0AA7862F3071363716B78E3705A
:1031A000404603E0084601E00020FFE703B0BDE829
:1031B000F08300BF35C0072034C007205DC307205F
:1031C00038C30720124B012270B51A7004461E4600
:1031D00008B9002518E0FFF7A5FD05460028F8D03E
:1031E000237903F0C003402B06D0C02B0AD1E3782B
:1031F00053B162789A4207D0617920460909FFF7F6
:1032000011FE01E0802BF7D000233370284670BDFB
:1032100038C3072082B0F0B51746421ED2B28DB037
:10322000FD2A04460D46139301D900205AE0002BD5
:10323000FBD0159B002BF8D0179B002BF5D0169BCD
:10324000002BF2D0149B002BEFD0002148222848FD
:1032500009F0B2FC00219022264809F0ADFC0021C3
:103260001022254809F0A8FC00210C22234809F06F
:10327000A3FC00210C22224809F09EFC214E224B87
:103280001C703446214B1D7013AD0FCD0FC42B683D
:10329000002118221E48236009F08EFC39461C4884
:1032A00017220BF092F90020B368014698470028D6
:1032B000BBD09DF8603013B9FFF70EFD12E0154A40
:1032C0000123019206220292009304A8FF2100220A
:1032D000FFF7FAFE0028A8D004A8FFF773FF002824
:1032E000A3D0E9E70DB0BDE8F04002B0704700BFE1
:1032F0005FC3072084C207204DC3072041C30720B6
:103300002CC3072070C2072035C0072040C3072008
:1033100014C30720B648020030B5182B8DB00546FF
:103320000C4615D8B2FA82F1181C18BF01204909C1
:1033300081420DD08DE80D00294604A822469DF853
:103340004030FFF7C1FE18B104A8FFF73BFF00E0D3
:1033500000200DB030BD13B50446107852790B46ED
:103360001209009203212246FFF7D6FF02B010BDDA
:1033700000231A4630B5084C990014F823502DB19B
:10338000904201D1601830BD0132D2B20133042B1A
:10339000F1D1002030BD00BF4DC3072000231846E7
:1033A000044A12F823200AB10130C0B20133042BC1
:1033B000F6D170474DC307202DE9F04188B068462B
:1033C0000021202209F0F8FBA14B1B7803F0FF0439
:1033D000002B40F03A819F4E684633692021984780
:1033E000002800F083809C4D6B8801336B80FFF7D1
:1033F000D5FF9DF80420A87202F00703032B04D028
:10340000964A137843F0010309E0954B1D789DF827
:103410000230AB4205D1914A137843F00203137096
:10342000E3E0C2F3C2029DF800E09DF80600D7B2C7
:103430008C4904EB440313F801C0F4450AD10B4452
:103440005978814206D199780124CF1B18BF0127F2
:103450009A7018E00134042CEAD183490B689A7001
:10346000804A587002F10900834283F800E040F07E
:10347000C9800A609DF800009DF80230834240F048
:10348000C480002427469DF80200FFF713FD9DF835
:10349000022002709DF80220427000228270FFF725
:1034A0008BFC04B117B39DF80030AB4200F09C8058
:1034B0009DF80170FF2F1BD1336868462021984783
:1034C00020B9664A137843F0040313709DF8053061
:1034D00003F00F02511C61F303038DF80530C3F3B1
:1034E00003139A4202DA6846FFF71CFC00247CE0D2
:1034F000BD422BD164B99DF807304BB133686846A3
:103500002021984720B9554A137843F004031370DB
:103510009DF8043003F0C003402B12D19DF8073012
:1035200013B95248182108E04B480C216A46FFF7AE
:1035300012FF002858D1002001466A46FFF70BFF12
:1035400052E09DF80330002B4ED1F4E7484B1B7836
:10355000002BCBD09DF8054004F00F064FEA14185D
:103560004645C3DA013666F303043846FFF712FC1A
:103570008DF805409DF80340A5421ED19DF804102A
:1035800001F0C001402906D0A1F180035A425A41FE
:10359000144618B91BE00122002854D0C0294378F2
:1035A00005D19F4203D0003318BF012300E0002360
:1035B000134303F0010428B90BE0ACB910B9684615
:1035C00041460FE043788DF80330857804E0C02948
:1035D00039D000258DF803506846FFF7A3FB1CB1D6
:1035E00068462946FFF71EFC6C46FFF775FB204630
:1035F00020490422FFF78EFC20461F490222FFF7D4
:1036000089FC22E003330B6034E785423FF439AF95
:10361000FFF750FC0446FFF7CFFB23783BB19DF842
:103620000530A27803F00F0393423FF72AAF9DF8CD
:10363000003023709DF8023063709DF80530C3F3AD
:103640000303A3701DE70346B2E708B0BDE8F081AD
:1036500038C3072070C207202CC307205EC3072091
:1036600035C0072041C3072030C0072014C30720FE
:1036700040C3072084C207205FC3072000231846E9
:10368000094A1A4452780AB10130C0B22433902B4F
:10369000F6D1064B5A780AB10130C0B293F8253002
:1036A0000BB10130C0B2704784C207205FC307204E
:1036B00008B5FFF76FFB064B28B18278187802FB3C
:1036C0000000C00008BD18781823584308BD00BF8B
:1036D00034C0072003490B6803604B6843608B6864
:1036E000836070472CC3072030B5414C4FF48035C0
:1036F000E561404CA060E068C506FCD43D488068A8
:10370000C0B20BB90C4665E00B46002A6AD0072A06
:10371000384C0D782FDDA5604D78083AA5608D787E
:10372000A560CD78A5600D79A5604D79A5608D79EE
:10373000A56001F10805C979A1602E498C6964076B
:10374000FBD58C681C708C685C708C689C70896878
:10375000D9702849CC68E406FBD48C68083303F898
:10376000044C8C6803F8034C8C6803F8024C89689D
:1037700003F8011C1BE0032A1BDDA5604D78043A09
:10378000A5608D78A5600D1DC978A1601949CC6828
:10379000E406FBD48C68043303F8044C8C6803F80B
:1037A000034C8C6803F8024C896803F8011C294615
:1037B000ABE70131A560013AE568ED06FCD40D4C9C
:1037C0000133A46803F8014C9FE7DD68ED06FCD4E3
:1037D000084B9B68631A934204DA14F8015B054BAB
:1037E0009D60F2E7024B4FF480329A6130BD00BF1A
:1037F00000C009200080084007B5002302A901226B
:1038000001F8013D00F01F001346FFF76DFF9DF822
:10381000070003B05DF804FB07B502AB03F8011D18
:1038200000F01F0019460122002340F02000FFF79E
:103830005BFF03B05DF804FB08B51720FFF7DCFF62
:10384000C0F3001008BD07207021FFF7E5BF034655
:103850000A46A02019460023FFF746BF08B50020FE
:10386000FFF7CAFFBDE8084000F0FE010020FFF7A7
:10387000D3BF0000024B4FF08072DA61704700BF87
:1038800020C0092008B50020FFF7B6FF40F0010175
:10389000C9B20020FFF7C0FF024B4FF080729A615F
:1038A00008BD00BF20C0092007202021FFF7B4BFBA
:1038B0000021E1200A460B46FFF716BF37B50C463C
:1038C0000546FFF7F5FF21462846FFF7C0FF0D4BE1
:1038D0004FF080721C469A610022ADF80620BDF8B8
:1038E000063001339BB2ADF8063033B94FF0807328
:1038F000E361FFF7DDFF03B030BDFFF79DFF002858
:10390000EDD0F3E720C0092008B51720FFF774FFBA
:1039100000F0010080F0010008BD07204021FFF702
:103920007BBF08B503460A46612019460123FFF70D
:10393000DBFEC0F3420008BD0021E2200A460B4630
:10394000FFF7D2BE70B5064600200D461446FFF7BD
:1039500053FF16B100F0BF0002E040F04000C0B2DB
:1039600015B100F0DF0101E040F0200114B101F0D9
:10397000EF0101E041F010010020BDE87040FFF7C9
:103980004BBF10B504460020FFF736FF14B900F016
:10399000F7010DE0012C04D100F0FB0141F008011A
:1039A00006E0022C14BF40F0080140F00C01C9B23F
:1039B0000020BDE81040FFF72FBF08B50020FFF73B
:1039C0001BFFBDE8084040F00201C9B20020FFF72C
:1039D00023BF08B50020FFF70FFFBDE8084000F047
:1039E000FD010020FFF718BF40F6DD13984206D80E
:1039F00040F66213B0F5166F38BF184600E018465F
:103A0000A0F51661C9B20520FFF706BF10B5044640
:103A10000620FFF7F1FEFA2C00F0D70102D141F0A9
:103A2000200104E0B4F5FA6F08BF41F00801062058
:103A3000BDE81040FFF7F0BE10B504460620FFF7C2
:103A4000DBFE032C20F0060028BF032440EA4401DB
:103A5000C9B20620BDE81040FFF7DEBEF9284FF0DE
:103A6000FA0305D9B0F57A6F88BF4FF47A6000E0A9
:103A70001846B0FBF3F00F2900F1FF30C0B228BFA9
:103A80000F2141EA0011C9B20420FFF7C5BE113071
:103A9000C0B2162804D8202928BF2021FFF7BCBEB9
:103AA0007047032804D0042814BF0321022100E03A
:103AB00001210320FFF7B0BE03460A463020194615
:103AC0000023FFF711BE03460A462A2019460023A9
:103AD000FFF70ABE73B50E4615460446FFF72CFFE6
:103AE000FFF7E6FE2B4B4FF08072DA61FFF771FFB4
:103AF00000210A460120FFF725FFFFF7A4FE022060
:103B0000FFF73FFF3046FFF76FFF2846FFF77EFFC6
:103B10000320FFF791FF02200321FFF77DFE012024
:103B20000021FFF779FE4FF4FA700321FFF796FFAB
:103B300021460020FFF7ABFF12200021FFF76CFEAB
:103B400013200021FFF768FE14200021FFF764FE18
:103B500015200021FFF760FE00211620FFF75CFE14
:103B60000D4B18681B79009005208DF80430FFF785
:103B700098FF68460521FFF79FFF68460521FFF77C
:103B8000A2FFFFF71AFF4FF4FA6004F032FC02B014
:103B900070BD00BF20C00920BD48020007B5094B19
:103BA000002102AA186842F8041D0B4605F003FF25
:103BB000019B1BB1044B4FF080521A6003B05DF8BB
:103BC00004FB00BFB0C3072004ED00E070B5174E42
:103BD000326822B90320202105F023FE3060144D05
:103BE0002A6822B90120202105F01BFE2860114C13
:103BF000216821B90120032205F013FE2060202056
:103C000040F6C3114FF4FA62FFF764FFFFF73AFE84
:103C100016200121084A04F0ABFD306828B128685D
:103C200018B12068003018BF012070BDACC3072058
:103C3000A8C30720B0C307209D3B010070B506460E
:103C40000379002203F0C003C02B0CBF0D4B0E4BB9
:103C500088B01D6831462846134605F013FE044619
:103C600060B9224623466946284605F0DFFE224613
:103C700023462846314605F005FE0446204608B096
:103C800070BD00BFA8C30720ACC3072038B50446E9
:103C90000D46FFF70BFA237883420AD0E37843B945
:103CA0000AF0A4F9BD2300F0030000FB033004F088
:103CB000A0FBFFF7DFFDFFF7D1FD2046A9B2FFF71C
:103CC000FDFDFFF7F1FDFFF7DDFD06F033FC0228F7
:103CD00006D1044B002118680A460B4605F06BFE1E
:103CE000012038BDB0C3072038B505460C46FFF7A4
:103CF0000BFE48B1A1B22846FFF713FEFFF704FE02
:103D000008B9FFF70AFE012038BD2DE970430646C9
:103D10000D46144606F00EFC022807D12246304616
:103D20002946002305F082FEC4B21DE006F09CFF88
:103D30004FF47A72002308F003FA10EB040841F103
:103D40000009002230462946134605F06FFEC4B232
:103D500054B906F089FF4FF47A72002308F0F0F9A5
:103D6000894508BF8045ECD22046BDE87083042910
:103D700038B5054603D1041C18BF012400E0002417
:103D800006F072FF2CB14FF47A72002308F0D8F9D4
:103D90002860204638BD000000B50C4B8DB009935B
:103DA0000B4B0C4A0B930C4B0A930CAB43F8102DA6
:103DB000002204920FCB8DE80F00084B0121084A26
:103DC0006A20FFF727FA0DB05DF804FBCD3B010038
:103DD000E93C01006F3D01008D3C01003D3C0100CC
:103DE000C248020003460A46024908681946FFF71E
:103DF0008CBF00BFACC3072003460A4602490868CF
:103E00001946FFF782BF00BFA8C3072008B506F018
:103E100091FB0F4B02285B6913D15A020DD5FFF7B6
:103E20002DFC0C4B00284FF00001186814BF012234
:103E30004FF0FF320B4605F0F9FDBDE80840FFF7F3
:103E4000BBBA5B02F9D5FFF719FC0028F5D108BD14
:103E500000C00920B0C3072030B504460D46134604
:103E600021792A46BDE83040006805F011B91FB538
:103E70000A4604AB0021022423F8041D01790094B2
:103E8000006805F0F0F89DF80C009DF80D3043EA4D
:103E9000002004B010BD10B504462A211922FFF7F6
:103EA000DBFF206821790D2205F0E1F8A0F12A035B
:103EB0005842584110BD0000044A13881F2B9FBF71
:103EC000581C1080024A42F823107047B8C30720DC
:103ED000BCC30720144AF0B51488012C20D9134B19
:103EE00000211F46661EB14206DA58681D6801317E
:103EF000401B43F8040BF5E77B6803EB53010023F9
:103F000018469CB2B44209DA57F8245001338D4266
:103F100082BF012505FA04F42043F2E7044B186040
:103F200000231380F0BD00BFB8C30720BCC3072027
:103F3000B4C3072008B50220012106F02DFE084B6E
:103F400001209A6A22F007029A629A6A42F00602F7
:103F50009A62044AD36843F03003D36008BD00BFBF
:103F60000080004000C0024008B5044A01F07F0311
:103F70004171D25C0321FFF76FFF08BDC748020003
:103F800008B5044A01F07F038171D25C0221FFF77A
:103F900063FF08BDC748020038B5044600682179B0
:103FA00005F081F8054688B1204606210022FFF77A
:103FB00053FF204607210022FFF74EFF20462E2107
:103FC000FFF7D2FF20462E21FFF7DAFF284638BD43
:103FD000642370B5B1FBF3F404FB1311CCB20A21D6
:103FE000B4FBF1F501FB15413031C9B20646FFF7CC
:103FF000C7FF092C8ABF05F1300130463046BDE8C5
:10400000704094BF2021C9B2FFF7AEBF01207047B6
:1040100038B50D46044606F0C9FB05F00F032370C2
:10402000114B15F0010F4FF0010214BFDA619A61D4
:10403000227812F0020F4FF0020214BFDA619A6187
:10404000227812F0040F4FF0100214BFDA619A6167
:10405000227812F0080F4FF4807214BFDA619A616F
:10406000BDE8384006F0B4BB20C0092001207047ED
:10407000022004F04FBA012070470000044B5B6936
:10408000C3F38130C3F3412343EA8000704700BF8C
:1040900020C0092010B5044601218122FFF7DCFE73
:1040A00020682179012204F0E2FF10F0600F14BFB4
:1040B0000120002010BD38B500210546FFF7D7FECE
:1040C0008122012184B22846FFF7C6FE24B21020C7
:1040D00094FBF0F007F04AFE4FF0765107F09AFE9D
:1040E000A96807F08FFD38BD08B5FFF7E4FF054963
:1040F00007F090FE044907F041FF4FF0844107F0BC
:1041000081FD08BD000010410000A0402DE9F04FE6
:104110000546ADF2546D0C46904682A82946012210
:104120009946DDF878A602F011F8002867D12146FB
:104130000DF22C400A2202F009F8044620B182A8B0
:1041400002F075FA20465AE0834606460090019038
:1041500006F08AFD4FF47A72002307F0F1FF02A9FE
:1041600007464FF4007282A86B4602F088F80546B5
:10417000D8B9009BCBB106F077FD4FF47A720023DB
:10418000F61B07F0DDFF064406F06EFD4FF47A7271
:10419000002307F0D5FF02A90746009A0DF22C4034
:1041A00001AB02F02AF90546B8B1B8F1000F01D011
:1041B000C8F80060B9F1000F01D0C9F800B0BAF139
:1041C000000F01D0CAF8004082A802F030FA0DF2C8
:1041D0002C4002F02CFA284611E0019A009B9A42EA
:1041E000E3D106F041FD4FF47A72002307F0A8FFF7
:1041F000009BBBEB070200EB020B1C44A8E70DF28F
:10420000546DBDE8F08FF0B50446ADF50B7D0F465B
:10421000164621461D4601A800230122009301F005
:1042200095FF044670B91DB101A8294602F011FAA4
:1042300001A8394632466B4602F021F8044601A82F
:1042400002F0F5F920460DF50B7DF0BDF0B5044602
:10425000ADF50B7D0F46164621461D4601A80023ED
:104260000A22009301F072FF044670B91DB101A843
:10427000294602F0EEF901A8394632466B4602F0B3
:10428000BCF8044601A802F0D2F920460DF50B7DDA
:10429000F0BDF0B50446ADF50B7D0F461646214640
:1042A0001D4601A800231222009301F04FFF04468F
:1042B00080B901A80DB1294600E0049902F0C9F9BE
:1042C00001A8394632466B4602F097F8044601A829
:1042D00002F0ADF920460DF50B7DF0BD7F2816D913
:1042E00031B1FF2812D80A4B803833F810007047DC
:1042F000074A8BB232F81120824203D00131802963
:10430000F6D10B4603F18000C0B270470020704721
:10431000284B02000023064A32F8132032B19042A3
:1043200001D00133F7E7034A32F81300704700BFAA
:10433000284C02004849020010B501200C4605F047
:1043400014FB2060003018BF012010BD0120704711
:1043500010B5044606F0EEF802280AD100210B46FB
:1043600020464FF0FF3205F061FB431E5842584192
:1043700010BD012010BD10B5044606F0DBF8022880
:1043800007D100212046BDE810400A460B4605F043
:1043900079BA10BD10B5044604F06EFC24B1012CAE
:1043A00006D100F07BF901E000F0EEFC044600E0ED
:1043B000042404F079FC204610BD28B1012801D066
:1043C0000420704700F018BA7047F8B507460E464B
:1043D00015461C4604F050FC3FB1012F0CD130466D
:1043E0002946224600F010FA04E0304629462246CB
:1043F00000F016FD044600E0042404F055FC2046BD
:10440000F8BDF8B507460E4615461C4604F034FCC8
:104410003FB1012F0CD130462946224600F042FA26
:1044200004E030462946224600F020FD044600E024
:10443000042404F039FC2046F8BD70B506460D464C
:10444000144604F019FC36B1012E0AD12846214643
:1044500000F082FA03E02846214600F02BFD0446D6
:1044600000E0042404F020FC204670BD08B506F0EE
:10447000FBFB4FF47A72002307F062FE08BD0000D8
:1044800010B5044606F068FD074BB0FBF3F00223BD
:10449000B0FBF3F2944202D3044A136110BDB3F5AA
:1044A000807FF9D00233F3E740420F000000034061
:1044B000044B9860DA68D206FCD4024B9868C0B20C
:1044C000704700BF0000034038B5FFF7CFFF00F58D
:1044D000FA75FF20FFF7ECFFFF20FFF7E9FFFF2849
:1044E000044606D0FFF7C2FF0023994208BFA84246
:1044F000F2D3204638BD000038B5064C4FF00075A9
:10450000E561FFF7E1FF044AA561137843F0010379
:10451000137038BD20C0092036C0072070B505468D
:104520000E46FFF7A3FF00F16404FF20FFF7C0FF72
:10453000FF2808D1FFF79AFF0023994208BFA04245
:10454000F3D3002070BDFE28FBD1102E06D92846DB
:104550004FF40071002204F02DFB19E02C1DFF2008
:10456000FFF7A6FF04F8040CFF20FFF7A1FF04F8F3
:10457000030CFF20FFF79CFF04F8020CFF20FFF75D
:1045800097FF043404F8050C331D1B1BDD42E6D1F4
:10459000FF20FFF78DFFFF20FFF78AFF012070BD8E
:1045A00070B506460D46FFF78FFFFF28044619D168
:1045B0002846FFF77DFFFD2D16D04FF400712246EF
:1045C000304604F0F7FA2046FFF772FF2046FFF767
:1045D0006FFF2046FFF76CFF00F01F00431F58429B
:1045E000584170BD002070BD012070BD020638B575
:1045F00004460D4607D577200021FFF7F7FF012875
:1046000036D804F07F041B4B4FF000729A61DA61D8
:10461000FFF75AFFFF282AD12046FFF749FF280E4F
:10462000FFF746FFC5F30740FFF742FFC5F307203A
:10463000FFF73EFFE8B2FFF73BFF402C04D0482CC9
:104640000CBF8720012000E09520FFF731FF4C2CA4
:1046500002D1FF20FFF72CFF0A24FF20FFF728FFDD
:10466000030605D5013C14F0FF04F6D138BDFF2048
:1046700038BD00BF20C00920064A074913784969A0
:10468000DBB2490154BF03F0FD0343F00303137091
:10469000704700BF36C0072020C009202DE9F3472E
:1046A000FFF7EAFF514B1A781E4612F0020F01D0B5
:1046B000187896E00120FFF7E3FE0A24FF20013C72
:1046C000FFF7F6FE14F0FF04F8D1494D4FF00073E8
:1046D000EB6140202146FFF789FF012801D000242B
:1046E0006EE0FFF7C3FE4FF4D57100F57A7A4820EB
:1046F000FFF77CFF01283DD1FF20FFF7D9FE01AF76
:1047000038550134042CF7D19DF80630012BE6D141
:104710009DF80730AA2BE2D1FFF7A8FE4FF0000961
:10472000494508BF5045D04606D3FFF79FFE49458F
:1047300008BF4045D3D207E0E9204FF08041FFF7A2
:1047400055FF0028E8D1F0E77A200021FFF74EFF5F
:104750000028C4D10446FF20FFF7AAFE38550134D3
:10476000042CF8D19DF8043013F0400F14BF0C2432
:10477000042425E02146E920FFF738FF022835BF51
:1047800002240124E9274127FFF770FE4FF00009BA
:10479000494508BF5045D0460BD3FFF767FE494552
:1047A00008BF40450CD34FF400715020FFF71EFFA7
:1047B00006E038460021FFF719FF0028E4D1ECE7B6
:1047C0000C4B1C704FF00073AB613CB13378182078
:1047D00003F0FE033370FFF753FE01E0FFF78CFE9A
:1047E0003078C0B202B0BDE8F08700BF36C0072005
:1047F00020C009203CC4072008B5FFF73DFF014B4E
:10480000187808BD36C00720F8B5144607460E468E
:10481000FFF732FF002C3AD01F4B1B78DB0738D450
:104820001E4B4FF00072DA611D4A1D46127812F0DD
:10483000080F08BF7602012C0DD151203146FFF739
:10484000D5FEE8B938464FF40071FFF767FEB0FABD
:1048500080F4640914E052203146FFF7C7FE78B9AE
:1048600038464FF40071FFF759FE28B1013C14F0AF
:10487000FF0407F50077F3D14C200021FFF7B6FEC7
:104880004FF00073201CAB6118BF0120F8BD04205D
:10489000F8BD0320F8BD00BF36C0072020C00920A6
:1048A0003CC40720F8B5144607460E46FFF7E4FE61
:1048B000002C45D0254B1A78D20743D41B785B07D0
:1048C00042D4234B4FF00072DA61224A1D4612781F
:1048D00012F0080F08BF7602012C0CD15820314687
:1048E000FFF784FE28BB3846FE21FFF759FEB0FAD9
:1048F00080F464091DE012F0060F03D0D720214692
:10490000FFF774FE59203146FFF770FE88B938462C
:10491000FC21FFF745FE28B1013C14F0FF0407F528
:104920000077F4D10020FD21FFF73AFE002808BFF0
:1049300001244FF00073201CAB6118BF0120F8BDAB
:104940000420F8BD0320F8BD0220F8BD36C00720C2
:1049500020C009203CC407207FB504460D46FFF760
:104960008BFE052C1AD12B78012B00F0FD8003D390
:10497000022B0BD00420FAE07E4B586910F08064C3
:1049800040F0F280FFF7B8FD2046F0E0794B5B691C
:1049900083F08063C3F380636B70E5E0764B1B7834
:1049A000DB0700F1E3800E2C00F2D880DFE804F092
:1049B00008124F53D6D6D6D6D6D6A3A8AAB4C400CA
:1049C0006C4B4FF00072DA61FFF77EFDFF3818BFC5
:1049D0000120C4E049200021FFF708FE044608B189
:1049E0000120BCE068461021FFF798FD0028F7D0B1
:1049F0009DF800309DF809009B09012B9DF80830B7
:104A000005D1013000EB03239BB29B021CE09DF813
:104A10000710890001EB93135A1C9DF806309DF88E
:104A2000051003F0030302EB83239DF80A2001F035
:104A30000F0101EBD212911C00F0030201EB4202C4
:104A4000D2B29BB2093A93402B60204687E04FF4E4
:104A500000732B8052E0494E337803F0040303F0D7
:104A6000FF01DBB1CD200021FFF7C0FD0028B7D149
:104A7000FF20FFF71DFD68461021FFF74FFD0028BE
:104A8000AED03024FF20FFF713FD601E10F0FF04AE
:104A9000F8D19DF80A2010231209D4E74920FFF726
:104AA000A5FD044600289BD168461021FFF736FD7E
:104AB000002895D031789DF80A2001F0020101F01C
:104AC000FF009DF80B3051B102F03F02DB0903EB10
:104AD00042039DF80D2001339209013AB3E7C2F376
:104AE000840103F003045A0902EBC402531C01FBC6
:104AF00003332B6033E0214B1B782B7000202EE01A
:104B0000492000E04A200021FFF770FD00287FF4D3
:104B100067AF284610211BE07A200021FFF766FDD1
:104B200000287FF45DAF2C1DFF20FFF7C1FC05F8C6
:104B3000010BA542F8D1E1E7CD200021FFF756FD9A
:104B400000287FF44DAFFF20FFF7B2FC284640213C
:104B5000FFF7E4FCB0FA80F0400900E00420054BC8
:104B60004FF000729A6102E0002000E0032004B0E0
:104B700070BD00BF20C0092036C007203CC40720FC
:104B8000054B1B78253BDBB2032B9ABF034A52F837
:104B900023000020704700BF40C40720104E0200D1
:104BA0001B4B2DE9F0411D880646B5F5007F0F46E9
:104BB000144602D1084611460AE0B5F5807F09D1B6
:104BC000084611462A46B04707F5807004F5807103
:104BD0002A4617E0B5F5047F05D1510A3846890207
:104BE0004FF400720EE0B5F5847F0FD1140A084629
:104BF0004FF480726102B047611C07F58070490272
:104C00004FF480723346BDE8F0411847BDE8F081AB
:104C10003EC40720034610B500295DDD07291A7838
:104C20002E4C2FDDA2605A780839A2609A78A260D3
:104C3000DA78A2601A79A2605A79A2609A79A260A1
:104C400003F10802DB79A360244B9C696407FBD560
:104C50009C6804709C6844709C6884709B68C370F6
:104C60001E4BDC68E406FBD49C68083000F8044C5A
:104C70009C6800F8034C9C6800F8024C9B6800F8A4
:104C8000013C1BE003291BDDA2605A780439A260B5
:104C90009A78A2601A1DDB78A360104BDC68E406EA
:104CA000FBD49C68043000F8044C9C6800F8034C6A
:104CB0009C6800F8024C9B6800F8013C1346ABE787
:104CC0000133A2600139E268D206FCD4034A013004
:104CD000926800F8012C9FE710BD00BF0000034060
:104CE00007B50B0C8DF804008DF805308DF8071012
:104CF0000B0A01A804218DF80630FFF78BFF03B0E3
:104D00005DF804FBF7B5164607460E4C4025032315
:104D1000E5618DF804300B0C8DF805308DF8071027
:104D20000B0A01A804218DF80630FFF773FF3846FF
:104D30003146002203F03EFFA561A561A56103B0E5
:104D4000F0BD00BF00C009200D4B4022DA610D4BC1
:104D5000D7229A60DA68D106FCD40A4B9B68094BCB
:104D6000FF229A60DA68D206FCD4064B98680306E4
:104D7000F5D5034B40229A61C0B29A619A6170479F
:104D800000C0092000000340F7B5FFF7DDFF1F4C0E
:104D9000002323801E4B1F4E40271A889B78F76103
:104DA0000546032101A8ADF804208DF80630FFF771
:104DB00031FF9DF805209DF806301F2AB761B761C5
:104DC000B7611CD1A3F12502032A18D8124A252B5A
:104DD000137005F0010006D1002814BF4FF4807352
:104DE0004FF4847305E0002814BF4FF400734FF4B0
:104DF00004732380FFF7C4FE084B400A1860208824
:104E0000B0FA80F0400903B0F0BD00BF3EC40720F7
:104E1000084E020000C0092040C4072044C40720F7
:104E20002DE9F0418B1817460E4A013B1268804667
:104E3000934214D84D024446FFF786FF0026C8EB84
:104E40000502BE42224407DA21460748FFF7A8FEC2
:104E500004F500740136F2E70020BDE8F08101207E
:104E6000BDE8F08144C40720054D01002DE9F04163
:104E70008B1817460D4A013B12688046934212D8A0
:104E800004464D020026C8EB0502BE42224407DA62
:104E900021460748FFF784FE04F500740136F2E767
:104EA0000020BDE8F0810120BDE8F08144C4072066
:104EB000954F010010B50C46072805D8DFE800F033
:104EC00006090E1214141414042010BDFFF73CFF41
:104ED0000AE0FFF755FE400A206005E04FF400733A
:104EE0000B8001E001230B60002010BD70B590B075
:104EF00003466A466E4600F1400514461868596834
:104F0000083303C4AB422246F7D1084D4024EC617C
:104F10009B200021FFF7E4FE30462146FFF77AFE92
:104F2000AC61AC61AC6110B070BD00BF00C00920C5
:104F300070B50646074D402477200021EC61FFF74D
:104F4000CFFE30462146FFF765FEAC61AC61AC6137
:104F500070BD00BF00C00920064B10B51C8834F09E
:104F60001F0404D0FFF70CFEB0FBF4F010BD204688
:104F700010BD00BF3EC40720014B1888704700BF1A
:104F80003EC40720024B1878003018BF012070473C
:104F90003EC407202DE9F7434FF0FF330F469046FC
:104FA00001938146FFF7D0FEFFF7ECFF0646B0B154
:104FB000194C4025194BE5611B880320B3F5847F0C
:104FC0000CBF4FF480714FF400713943FFF788FE36
:104FD00001A80421FFF71EFEA561A561A5610E4C85
:104FE000402382203946E361FFF77AFE4846414676
:104FF000012203F0DFFD3EB1019B02A8013340F81E
:10500000043D0421FFF706FE4023A361A361A361D1
:1050100003B0BDE8F08300BF00C009203EC40720F4
:10502000F7B5124B07461B88B3F5847F4FF0FF336B
:105030000CBF4FF480764FF400760193FFF7A2FF88
:1050400070B10B4C4025032046EA4721E561FFF78C
:1050500047FE01A80421FFF7DDFDA561A561A5615B
:105060000198431C08BF002003B0F0BD3EC40720D8
:1050700000C0092037B5074B074C18684025019040
:105080000421E56101A8FFF7C5FDA561A561A56142
:1050900003B030BD0B4E020000C009201FB501A8AF
:1050A00003F0ACFC9DF809309DF8082003F00F03D5
:1050B00002F01F025B0543EA02419DF806309DF8AD
:1050C000040003F01F0341EAC3229DF80530C0F33A
:1050D000440003F03F0342EA4313BDF80A2018439B
:1050E000520602F10842104305B05DF804FB30B5EA
:1050F00004460D1F131B0344032B04D955F8043F2A
:1051000044F8043BF6E722F00303194402F00302DB
:10511000013B18440A44914204D011F8013B00F8C5
:10512000013FF8E730BD0244904202D000F8011B75
:10513000FAE7704700F10B010023DA0142EA53035A
:1051400010F8012B1344884203F0FF03F5D11846F1
:105150007047026810B50446BAB11346184613F8F2
:10516000011B1F2902D93A29F8D101E0002010BD06
:10517000114611F8013B884207D1303BD9B20129D1
:1051800003D802321846226010BD4FF0FF3010BD28
:1051900003692DE9F04101F109020D4653B341695C
:1051A00000244E1E16F8013F0134202B18D0052B89
:1051B00047D0092C02D12E2717700132A3F14107E5
:1051C000192F0BD8082C0F7B8CBF4FF0100E4FF00F
:1051D000080E1EEA070F1CBF2033DBB2137001322A
:1051E0000B2CDFD1CB7A2B72CB692B600B8BAB8076
:1051F000CB8AEB8000241470AE693EB303690BB90F
:1052000000241AE0EB69002BFAD04FF6FF73028CF2
:105210009A42F5D0D0F81C80771E38F8140060B19F
:105220000021FFF75BF80028EAD0EB69013B9C42C4
:10523000E6D2013407F8010FEFE700233355BDE84C
:10524000F081092C4FF0E503C8D1B4E7BDE8F08147
:10525000F8B5037904460BB90020F8BD056B00F1E1
:105260003407394640782A460123FFF7CAF890B937
:10527000636AE269EB1A93422071EDD2E678012E5F
:10528000EAD9E36960781D4439462A460123FFF7CD
:10529000B8F8013EF3E70120F8BD0000F8B5044678
:1052A000FFF7D6FF05468DBB2378032B26D1667901
:1052B000012E23D104F13407384629464FF40072F9
:1052C000FFF731FF4AF65523A4F83232104B226A19
:1052D000636303F1FF5303F500532033C4F818321E
:1052E00063690132C4F81C3223692263C4F8203296
:1052F000607839463346FFF784F86571002160789D
:105300000A46FFF79AF8003018BF0120F8BD00BF29
:1053100052526141036B70B5994205460E4610D05A
:10532000FFF796FF044608B101240BE0687805F109
:10533000340132460123FFF748F80028F4D12E63E8
:1053400000E00024204670BD002310B503714FF02B
:10535000FF3303630446FFF7DDFFA0B94AF6552388
:10536000B4F832229A4210D1D4F86A30084A23F0B5
:105370007F4393420AD0D4F8860020F07F40801A01
:1053800018BF012010BD032010BD022010BD00BFBA
:1053900046415400F0B50023036085B00746084637
:1053A0001546FFF7D6FE061EC0F2F2807E4B53F87C
:1053B0002640002C00F0EE80E068FEF7C9FF0028D0
:1053C00000F0EA803C60237883B16078FEF7F5FF57
:1053D000C1070BD4002D00F0D98000F0040303F0C6
:1053E000FF00002B00F0DD800A20DAE00023F0B29D
:1053F00023706070FEF7CEFFC20700F1CF800DB1C1
:105400004307F1D420460021FFF79EFF01281CD15D
:105410002146002291F8F6310BB1D1F8FA314DF85E
:1054200022300132042A01F11001F3D100265DF887
:1054300026502DB120462946FFF786FF08B90BE01C
:1054400002200136042EF2D100E00025032800F0EE
:10545000A78008B10D20A4E0B4F83F30B3F5007F79
:10546000F8D1B4F84A0000B9A06D94F844E0E061C6
:105470000EF1FF33012B84F803E0EBD894F84130B0
:10548000A370002BE6D05A1E1A42E3D1B4F845C0EF
:105490001CF00F0FA4F808C0DCD1B4F8472002B903
:1054A000626DB4F842100029D4D00EFB00FE01EB6F
:1054B0001C177744BA42CDD3D21BB2FBF3F3002BB7
:1054C000C8D040F6F572934206D94FF6F576B3424E
:1054D0008CBF0326022600E00126023329442F4414
:1054E000032EA36125626162E76206D1BCF1000F61
:1054F000B0D1226E9B00A26210E0BCF1000FA9D0D7
:10550000022E4FEA43020CBF1346D218714418BF53
:1055100003F00103A16218BF03EB520303F2FF1370
:10552000B0EB532F96D34FF0FF3363612361032E0B
:105530004FF08003637122D1B4F86430012B1ED187
:105540002046691CFFF7E6FEC8B94AF65523B4F8B1
:10555000322260719A4212D1626B144B9A420ED180
:1055600003F1FF53D4F8182203F5005320339A4275
:1055700001BFD4F81C326361D4F8203223610C4A95
:105580002670138801339BB21380E380002008E06B
:105590000B2006E00C2004E00F2002E0032000E0D6
:1055A000012005B0F0BD00BF4CC40720525261413C
:1055B00048C4072010B50446A8B103689BB11A7807
:1055C0008AB1D988828891420DD1D868FEF7C0FE91
:1055D00058B123685878FEF7F0FE10F0010F14BFA1
:1055E0000320002010BD092010BD0F2010BD50B1B8
:1055F000A1F10B03012B06D9092904D00F2902D0F0
:10560000C068FEF7B8BE704783690239023B994211
:105610003DBF8278C36A02FB013000207047012938
:10562000F8B507460C464BD98369994248D20378AE
:10563000022B29D0032B34D0012B41D101EB510691
:10564000416A01EB5621FFF765FE10B14FF0FF30C4
:10565000F8BD796AC6F3080301363B44384601EBCE
:10566000562193F83450FFF755FE0028EED1C6F3CB
:1056700008063E4496F83400E30745EA00204CBF94
:105680000009C0F30B00F8BD416A01EB1421FFF7DC
:1056900041FE0028DAD1630003F4FF73FE18B08ED8
:1056A000F8BD416A01EBD411FFF734FE0028CDD1DB
:1056B000A40004F4FE743C44606B20F07040F8BD1C
:1056C0000120F8BDF8B5054684680E46012CE98036
:1056D00001D10220F8BD03689A699442F9D254B905
:1056E0001A78032A01D19A6A22B91A899642F0D20D
:1056F000986A17E0144621469F783F01BE420DD3B9
:105700002868FFF78CFF431C01461AD00128E0D916
:105710002B689B699842DCD2F61BEFE728680C46A1
:10572000FFF772FFEC600028D3D02B6800EB161057
:1057300006F00F0603EB4616343628616E61002032
:10574000F8BD0120F8BD0129F8B505460C461646FE
:105750005FD9836999425CD20378022B38D0032B3E
:1057600042D0012B51D101EB5107416A01EB572186
:10577000FFF7D0FD002849D1C7F3080314F0010456
:105780002B4418BF93F83410F2B21EBF01F00F0182
:1057900041EA0212D2B2696A83F834200137012348
:1057A0002B71284601EB5721FFF7B4FD70BBC7F3FF
:1057B00008072F4414B1C6F3071606E097F83430F3
:1057C000C6F3032623F00F031E4387F834601DE061
:1057D000416A01EB1421FFF79DFDB8B9640004F4A0
:1057E000FF742C44A68611E0416A01EBD411FFF747
:1057F00091FD58B9A40004F4FE7430342C4463685D
:1058000003F070431E43666000E0022001232B7109
:10581000F8BD0220F8BDF8B505460F4631B9066956
:1058200096B183699E4228BF01260EE0FFF7F7FE7E
:1058300001283FD9441C02D14FF0FF30F8BDAB69BD
:10584000984238D33E4600E001263446AB69013425
:105850009C4204D3012E01D80020F8BD0224284622
:105860002146FFF7DCFE30B1411C24D0012822D0B4
:10587000B442EBD1F0E7284621466FF07042FFF7C3
:1058800062FFA8B957B96B692C615A1C0ED0013B55
:105890006B616B7943F001036B7107E02846394671
:1058A0002246FFF750FF0028EDD001E02046F8BD6A
:1058B0000128C1D00120F8BD2DE9F843C68804466F
:1058C0000136B3B20F4613B90420BDE8F88303696B
:1058D000002BF9D016F00F0859D1C16801330361CC
:1058E000006819B903899E42EED250E08378013BEB
:1058F00013EA16134BD1FFF792FE0128054602D892
:105900000220BDE8F883421C02D10120BDE8F883E3
:10591000206883699D4234D3002FD5D0E168FFF71A
:105920007AFF054600283BD00128E9D0431CECD083
:105930002068FFF78DFC07460028E6D1206839462D
:1059400034304FF40072FFF7EEFBD4F80090294694
:105950004846FFF759FEC9F8300023689A78974205
:105960000CD201221A712068FFF772FC0028CCD1FA
:1059700022680137136B01331363EEE71A6BD71BF1
:105980001F63E56020682946FFF73EFE206123681B
:10599000E68003EB4813343363610020BDE8F883ED
:1059A0000720BDE8F88300002DE9F74F00210646E7
:1059B000FFF788FE002840F087804FF6FF734FF016
:1059C000FF084446338430683169FFF7A3FC0028A0
:1059D0007AD175692B78002B6DD0E52BE97A5FD0F1
:1059E0000F0701F03F0202D50F2A59D101E00F2A1B
:1059F00042D1D6F81C90B9F1000F55D0580606D503
:105A000003F0BF04F38895F80D80338401E0A342CE
:105A100049D16B7B434546D12F784FF0000A27F0E0
:105A200040077B1E0D275F430123294A1AF80220F5
:105A3000A85A83B1FEF76EFC7F2F019033D839F856
:105A40001700FEF767FC019A07F1010B824203463B
:105A500029D15F4603E04FF6FF72904223D10AF14D
:105A6000010ABAF10D0FE0D12A78510629D543B3C6
:105A700039F817302BB316E024B92846FFF75AFB44
:105A800080451AD0B369DA7AD20709D405F10B0040
:105A9000854214D015F8011B13F8012B9142F7D061
:105AA0004FF6FF733384FF2430460021FFF704FFD5
:105AB000002888D008E0042006E0204604E000200A
:105AC00002E0013CE4B2EFE703B0BDE8F08F00BFB5
:105AD000104F02002DE9F74F0B7807462F2B884611
